{
  "_format": "hh-sol-artifact-1",
  "contractName": "LegalPeppersClub",
  "sourceName": "contracts/LegalPeppersClub.sol",
  "abi": [
    {
      "inputs": [
        {
          "internalType": "address[]",
          "name": "_payees",
          "type": "address[]"
        },
        {
          "internalType": "uint256[]",
          "name": "_shares",
          "type": "uint256[]"
        },
        {
          "internalType": "bytes32",
          "name": "_merkleroot",
          "type": "bytes32"
        },
        {
          "internalType": "uint256",
          "name": "_maxBatchSize",
          "type": "uint256"
        }
      ],
      "stateMutability": "nonpayable",
      "type": "constructor"
    },
    {
      "anonymous": false,
      "inputs": [
        {
          "indexed": true,
          "internalType": "address",
          "name": "owner",
          "type": "address"
        },
        {
          "indexed": true,
          "internalType": "address",
          "name": "approved",
          "type": "address"
        },
        {
          "indexed": true,
          "internalType": "uint256",
          "name": "tokenId",
          "type": "uint256"
        }
      ],
      "name": "Approval",
      "type": "event"
    },
    {
      "anonymous": false,
      "inputs": [
        {
          "indexed": true,
          "internalType": "address",
          "name": "owner",
          "type": "address"
        },
        {
          "indexed": true,
          "internalType": "address",
          "name": "operator",
          "type": "address"
        },
        {
          "indexed": false,
          "internalType": "bool",
          "name": "approved",
          "type": "bool"
        }
      ],
      "name": "ApprovalForAll",
      "type": "event"
    },
    {
      "anonymous": false,
      "inputs": [
        {
          "indexed": true,
          "internalType": "contract IERC20",
          "name": "token",
          "type": "address"
        },
        {
          "indexed": false,
          "internalType": "address",
          "name": "to",
          "type": "address"
        },
        {
          "indexed": false,
          "internalType": "uint256",
          "name": "amount",
          "type": "uint256"
        }
      ],
      "name": "ERC20PaymentReleased",
      "type": "event"
    },
    {
      "anonymous": false,
      "inputs": [
        {
          "indexed": false,
          "internalType": "address",
          "name": "minter",
          "type": "address"
        },
        {
          "indexed": false,
          "internalType": "uint256",
          "name": "amount",
          "type": "uint256"
        }
      ],
      "name": "Minted",
      "type": "event"
    },
    {
      "anonymous": false,
      "inputs": [
        {
          "indexed": true,
          "internalType": "address",
          "name": "previousOwner",
          "type": "address"
        },
        {
          "indexed": true,
          "internalType": "address",
          "name": "newOwner",
          "type": "address"
        }
      ],
      "name": "OwnershipTransferred",
      "type": "event"
    },
    {
      "anonymous": false,
      "inputs": [
        {
          "indexed": false,
          "internalType": "address",
          "name": "account",
          "type": "address"
        },
        {
          "indexed": false,
          "internalType": "uint256",
          "name": "shares",
          "type": "uint256"
        }
      ],
      "name": "PayeeAdded",
      "type": "event"
    },
    {
      "anonymous": false,
      "inputs": [
        {
          "indexed": false,
          "internalType": "address",
          "name": "from",
          "type": "address"
        },
        {
          "indexed": false,
          "internalType": "uint256",
          "name": "amount",
          "type": "uint256"
        }
      ],
      "name": "PaymentReceived",
      "type": "event"
    },
    {
      "anonymous": false,
      "inputs": [
        {
          "indexed": false,
          "internalType": "address",
          "name": "to",
          "type": "address"
        },
        {
          "indexed": false,
          "internalType": "uint256",
          "name": "amount",
          "type": "uint256"
        }
      ],
      "name": "PaymentReleased",
      "type": "event"
    },
    {
      "anonymous": false,
      "inputs": [
        {
          "indexed": false,
          "internalType": "address",
          "name": "minter",
          "type": "address"
        },
        {
          "indexed": false,
          "internalType": "address",
          "name": "recipient",
          "type": "address"
        },
        {
          "indexed": false,
          "internalType": "uint256",
          "name": "amount",
          "type": "uint256"
        }
      ],
      "name": "ReservedToken",
      "type": "event"
    },
    {
      "anonymous": false,
      "inputs": [
        {
          "indexed": false,
          "internalType": "bytes32",
          "name": "root",
          "type": "bytes32"
        }
      ],
      "name": "RootChanged",
      "type": "event"
    },
    {
      "anonymous": false,
      "inputs": [
        {
          "indexed": false,
          "internalType": "enum LegalPeppersClub.Status",
          "name": "status",
          "type": "uint8"
        }
      ],
      "name": "StatusChanged",
      "type": "event"
    },
    {
      "anonymous": false,
      "inputs": [
        {
          "indexed": true,
          "internalType": "address",
          "name": "from",
          "type": "address"
        },
        {
          "indexed": true,
          "internalType": "address",
          "name": "to",
          "type": "address"
        },
        {
          "indexed": true,
          "internalType": "uint256",
          "name": "tokenId",
          "type": "uint256"
        }
      ],
      "name": "Transfer",
      "type": "event"
    },
    {
      "inputs": [],
      "name": "PRICE",
      "outputs": [
        {
          "internalType": "uint256",
          "name": "",
          "type": "uint256"
        }
      ],
      "stateMutability": "view",
      "type": "function"
    },
    {
      "inputs": [
        {
          "internalType": "address",
          "name": "",
          "type": "address"
        }
      ],
      "name": "addressToMintCount",
      "outputs": [
        {
          "internalType": "uint256",
          "name": "",
          "type": "uint256"
        }
      ],
      "stateMutability": "view",
      "type": "function"
    },
    {
      "inputs": [
        {
          "internalType": "address",
          "name": "to",
          "type": "address"
        },
        {
          "internalType": "uint256",
          "name": "tokenId",
          "type": "uint256"
        }
      ],
      "name": "approve",
      "outputs": [],
      "stateMutability": "nonpayable",
      "type": "function"
    },
    {
      "inputs": [
        {
          "internalType": "address",
          "name": "owner",
          "type": "address"
        }
      ],
      "name": "balanceOf",
      "outputs": [
        {
          "internalType": "uint256",
          "name": "",
          "type": "uint256"
        }
      ],
      "stateMutability": "view",
      "type": "function"
    },
    {
      "inputs": [],
      "name": "baseURI",
      "outputs": [
        {
          "internalType": "string",
          "name": "",
          "type": "string"
        }
      ],
      "stateMutability": "view",
      "type": "function"
    },
    {
      "inputs": [
        {
          "internalType": "uint256",
          "name": "tokenId",
          "type": "uint256"
        }
      ],
      "name": "getApproved",
      "outputs": [
        {
          "internalType": "address",
          "name": "",
          "type": "address"
        }
      ],
      "stateMutability": "view",
      "type": "function"
    },
    {
      "inputs": [
        {
          "internalType": "address",
          "name": "owner",
          "type": "address"
        },
        {
          "internalType": "address",
          "name": "operator",
          "type": "address"
        }
      ],
      "name": "isApprovedForAll",
      "outputs": [
        {
          "internalType": "bool",
          "name": "",
          "type": "bool"
        }
      ],
      "stateMutability": "view",
      "type": "function"
    },
    {
      "inputs": [],
      "name": "maxPresaleMint",
      "outputs": [
        {
          "internalType": "uint256",
          "name": "",
          "type": "uint256"
        }
      ],
      "stateMutability": "view",
      "type": "function"
    },
    {
      "inputs": [],
      "name": "maxSupply",
      "outputs": [
        {
          "internalType": "uint256",
          "name": "",
          "type": "uint256"
        }
      ],
      "stateMutability": "view",
      "type": "function"
    },
    {
      "inputs": [
        {
          "internalType": "uint256",
          "name": "_amount",
          "type": "uint256"
        }
      ],
      "name": "mint",
      "outputs": [],
      "stateMutability": "payable",
      "type": "function"
    },
    {
      "inputs": [],
      "name": "name",
      "outputs": [
        {
          "internalType": "string",
          "name": "",
          "type": "string"
        }
      ],
      "stateMutability": "view",
      "type": "function"
    },
    {
      "inputs": [],
      "name": "nextOwnerToExplicitlySet",
      "outputs": [
        {
          "internalType": "uint256",
          "name": "",
          "type": "uint256"
        }
      ],
      "stateMutability": "view",
      "type": "function"
    },
    {
      "inputs": [],
      "name": "notRevealedURI",
      "outputs": [
        {
          "internalType": "string",
          "name": "",
          "type": "string"
        }
      ],
      "stateMutability": "view",
      "type": "function"
    },
    {
      "inputs": [],
      "name": "owner",
      "outputs": [
        {
          "internalType": "address",
          "name": "",
          "type": "address"
        }
      ],
      "stateMutability": "view",
      "type": "function"
    },
    {
      "inputs": [
        {
          "internalType": "uint256",
          "name": "tokenId",
          "type": "uint256"
        }
      ],
      "name": "ownerOf",
      "outputs": [
        {
          "internalType": "address",
          "name": "",
          "type": "address"
        }
      ],
      "stateMutability": "view",
      "type": "function"
    },
    {
      "inputs": [
        {
          "internalType": "uint256",
          "name": "index",
          "type": "uint256"
        }
      ],
      "name": "payee",
      "outputs": [
        {
          "internalType": "address",
          "name": "",
          "type": "address"
        }
      ],
      "stateMutability": "view",
      "type": "function"
    },
    {
      "inputs": [
        {
          "internalType": "uint256",
          "name": "_amount",
          "type": "uint256"
        },
        {
          "internalType": "bytes32[]",
          "name": "_proof",
          "type": "bytes32[]"
        }
      ],
      "name": "presaleMint",
      "outputs": [],
      "stateMutability": "payable",
      "type": "function"
    },
    {
      "inputs": [
        {
          "internalType": "address payable",
          "name": "account",
          "type": "address"
        }
      ],
      "name": "release",
      "outputs": [],
      "stateMutability": "nonpayable",
      "type": "function"
    },
    {
      "inputs": [
        {
          "internalType": "contract IERC20",
          "name": "token",
          "type": "address"
        },
        {
          "internalType": "address",
          "name": "account",
          "type": "address"
        }
      ],
      "name": "release",
      "outputs": [],
      "stateMutability": "nonpayable",
      "type": "function"
    },
    {
      "inputs": [
        {
          "internalType": "contract IERC20",
          "name": "token",
          "type": "address"
        },
        {
          "internalType": "address",
          "name": "account",
          "type": "address"
        }
      ],
      "name": "released",
      "outputs": [
        {
          "internalType": "uint256",
          "name": "",
          "type": "uint256"
        }
      ],
      "stateMutability": "view",
      "type": "function"
    },
    {
      "inputs": [
        {
          "internalType": "address",
          "name": "account",
          "type": "address"
        }
      ],
      "name": "released",
      "outputs": [
        {
          "internalType": "uint256",
          "name": "",
          "type": "uint256"
        }
      ],
      "stateMutability": "view",
      "type": "function"
    },
    {
      "inputs": [],
      "name": "renounceOwnership",
      "outputs": [],
      "stateMutability": "nonpayable",
      "type": "function"
    },
    {
      "inputs": [],
      "name": "reserveAmount",
      "outputs": [
        {
          "internalType": "uint256",
          "name": "",
          "type": "uint256"
        }
      ],
      "stateMutability": "view",
      "type": "function"
    },
    {
      "inputs": [
        {
          "internalType": "address",
          "name": "_recipient",
          "type": "address"
        },
        {
          "internalType": "uint256",
          "name": "_amount",
          "type": "uint256"
        }
      ],
      "name": "reserveLPCs",
      "outputs": [],
      "stateMutability": "nonpayable",
      "type": "function"
    },
    {
      "inputs": [],
      "name": "reveal",
      "outputs": [],
      "stateMutability": "nonpayable",
      "type": "function"
    },
    {
      "inputs": [],
      "name": "revealed",
      "outputs": [
        {
          "internalType": "bool",
          "name": "",
          "type": "bool"
        }
      ],
      "stateMutability": "view",
      "type": "function"
    },
    {
      "inputs": [],
      "name": "root",
      "outputs": [
        {
          "internalType": "bytes32",
          "name": "",
          "type": "bytes32"
        }
      ],
      "stateMutability": "view",
      "type": "function"
    },
    {
      "inputs": [
        {
          "internalType": "address",
          "name": "from",
          "type": "address"
        },
        {
          "internalType": "address",
          "name": "to",
          "type": "address"
        },
        {
          "internalType": "uint256",
          "name": "tokenId",
          "type": "uint256"
        }
      ],
      "name": "safeTransferFrom",
      "outputs": [],
      "stateMutability": "nonpayable",
      "type": "function"
    },
    {
      "inputs": [
        {
          "internalType": "address",
          "name": "from",
          "type": "address"
        },
        {
          "internalType": "address",
          "name": "to",
          "type": "address"
        },
        {
          "internalType": "uint256",
          "name": "tokenId",
          "type": "uint256"
        },
        {
          "internalType": "bytes",
          "name": "_data",
          "type": "bytes"
        }
      ],
      "name": "safeTransferFrom",
      "outputs": [],
      "stateMutability": "nonpayable",
      "type": "function"
    },
    {
      "inputs": [
        {
          "internalType": "address",
          "name": "operator",
          "type": "address"
        },
        {
          "internalType": "bool",
          "name": "approved",
          "type": "bool"
        }
      ],
      "name": "setApprovalForAll",
      "outputs": [],
      "stateMutability": "nonpayable",
      "type": "function"
    },
    {
      "inputs": [
        {
          "internalType": "string",
          "name": "_baseURI",
          "type": "string"
        }
      ],
      "name": "setBaseURI",
      "outputs": [],
      "stateMutability": "nonpayable",
      "type": "function"
    },
    {
      "inputs": [
        {
          "internalType": "bytes32",
          "name": "_root",
          "type": "bytes32"
        }
      ],
      "name": "setMerkleRoot",
      "outputs": [],
      "stateMutability": "nonpayable",
      "type": "function"
    },
    {
      "inputs": [
        {
          "internalType": "string",
          "name": "_notRevealedURI",
          "type": "string"
        }
      ],
      "name": "setNotRevealedURI",
      "outputs": [],
      "stateMutability": "nonpayable",
      "type": "function"
    },
    {
      "inputs": [
        {
          "internalType": "enum LegalPeppersClub.Status",
          "name": "_status",
          "type": "uint8"
        }
      ],
      "name": "setStatus",
      "outputs": [],
      "stateMutability": "nonpayable",
      "type": "function"
    },
    {
      "inputs": [
        {
          "internalType": "address",
          "name": "account",
          "type": "address"
        }
      ],
      "name": "shares",
      "outputs": [
        {
          "internalType": "uint256",
          "name": "",
          "type": "uint256"
        }
      ],
      "stateMutability": "view",
      "type": "function"
    },
    {
      "inputs": [],
      "name": "status",
      "outputs": [
        {
          "internalType": "enum LegalPeppersClub.Status",
          "name": "",
          "type": "uint8"
        }
      ],
      "stateMutability": "view",
      "type": "function"
    },
    {
      "inputs": [
        {
          "internalType": "bytes4",
          "name": "interfaceId",
          "type": "bytes4"
        }
      ],
      "name": "supportsInterface",
      "outputs": [
        {
          "internalType": "bool",
          "name": "",
          "type": "bool"
        }
      ],
      "stateMutability": "view",
      "type": "function"
    },
    {
      "inputs": [],
      "name": "symbol",
      "outputs": [
        {
          "internalType": "string",
          "name": "",
          "type": "string"
        }
      ],
      "stateMutability": "view",
      "type": "function"
    },
    {
      "inputs": [
        {
          "internalType": "uint256",
          "name": "index",
          "type": "uint256"
        }
      ],
      "name": "tokenByIndex",
      "outputs": [
        {
          "internalType": "uint256",
          "name": "",
          "type": "uint256"
        }
      ],
      "stateMutability": "view",
      "type": "function"
    },
    {
      "inputs": [
        {
          "internalType": "address",
          "name": "owner",
          "type": "address"
        },
        {
          "internalType": "uint256",
          "name": "index",
          "type": "uint256"
        }
      ],
      "name": "tokenOfOwnerByIndex",
      "outputs": [
        {
          "internalType": "uint256",
          "name": "",
          "type": "uint256"
        }
      ],
      "stateMutability": "view",
      "type": "function"
    },
    {
      "inputs": [
        {
          "internalType": "uint256",
          "name": "tokenId",
          "type": "uint256"
        }
      ],
      "name": "tokenURI",
      "outputs": [
        {
          "internalType": "string",
          "name": "",
          "type": "string"
        }
      ],
      "stateMutability": "view",
      "type": "function"
    },
    {
      "inputs": [],
      "name": "tokensReserved",
      "outputs": [
        {
          "internalType": "uint256",
          "name": "",
          "type": "uint256"
        }
      ],
      "stateMutability": "view",
      "type": "function"
    },
    {
      "inputs": [
        {
          "internalType": "contract IERC20",
          "name": "token",
          "type": "address"
        }
      ],
      "name": "totalReleased",
      "outputs": [
        {
          "internalType": "uint256",
          "name": "",
          "type": "uint256"
        }
      ],
      "stateMutability": "view",
      "type": "function"
    },
    {
      "inputs": [],
      "name": "totalReleased",
      "outputs": [
        {
          "internalType": "uint256",
          "name": "",
          "type": "uint256"
        }
      ],
      "stateMutability": "view",
      "type": "function"
    },
    {
      "inputs": [],
      "name": "totalShares",
      "outputs": [
        {
          "internalType": "uint256",
          "name": "",
          "type": "uint256"
        }
      ],
      "stateMutability": "view",
      "type": "function"
    },
    {
      "inputs": [],
      "name": "totalSupply",
      "outputs": [
        {
          "internalType": "uint256",
          "name": "",
          "type": "uint256"
        }
      ],
      "stateMutability": "view",
      "type": "function"
    },
    {
      "inputs": [
        {
          "internalType": "address",
          "name": "from",
          "type": "address"
        },
        {
          "internalType": "address",
          "name": "to",
          "type": "address"
        },
        {
          "internalType": "uint256",
          "name": "tokenId",
          "type": "uint256"
        }
      ],
      "name": "transferFrom",
      "outputs": [],
      "stateMutability": "nonpayable",
      "type": "function"
    },
    {
      "inputs": [
        {
          "internalType": "address",
          "name": "newOwner",
          "type": "address"
        }
      ],
      "name": "transferOwnership",
      "outputs": [],
      "stateMutability": "nonpayable",
      "type": "function"
    },
    {
      "stateMutability": "payable",
      "type": "receive"
    }
  ],
  "bytecode": "0x6000808055600755610180604052604161010081815290620041876101203980516200003491601391602090910190620004f8565b506014805460ff19169055611a0a60a052601e60c052600c60e0523480156200005c57600080fd5b50604051620041c8380380620041c88339810160408190526200007f9162000680565b83836040518060400160405280601081526020016f2632b3b0b62832b83832b939a1b63ab160811b815250604051806040016040528060038152602001624c504360e81b81525084600081116200012d5760405162461bcd60e51b815260206004820152602760248201527f455243373231413a206d61782062617463682073697a65206d757374206265206044820152666e6f6e7a65726f60c81b60648201526084015b60405180910390fd5b825162000142906001906020860190620004f8565b50815162000158906002906020850190620004f8565b50608052506200016a905033620002b8565b60016009558051825114620001dd5760405162461bcd60e51b815260206004820152603260248201527f5061796d656e7453706c69747465723a2070617965657320616e6420736861726044820152710cae640d8cadccee8d040dad2e6dac2e8c6d60731b606482015260840162000124565b6000825111620002305760405162461bcd60e51b815260206004820152601a60248201527f5061796d656e7453706c69747465723a206e6f20706179656573000000000000604482015260640162000124565b60005b82518110156200029c57620002878382815181106200025657620002566200076e565b60200260200101518383815181106200027357620002736200076e565b60200260200101516200030a60201b60201c565b8062000293816200079a565b91505062000233565b50505060159190915550506011805460ff191690555062000810565b600880546001600160a01b038381166001600160a01b0319831681179093556040519116919082907f8be0079c531659141344cd1fd0a4f28419497f9722a3daafe3b4186f6b6457e090600090a35050565b6001600160a01b038216620003775760405162461bcd60e51b815260206004820152602c60248201527f5061796d656e7453706c69747465723a206163636f756e74206973207468652060448201526b7a65726f206164647265737360a01b606482015260840162000124565b60008111620003c95760405162461bcd60e51b815260206004820152601d60248201527f5061796d656e7453706c69747465723a20736861726573206172652030000000604482015260640162000124565b6001600160a01b0382166000908152600c602052604090205415620004455760405162461bcd60e51b815260206004820152602b60248201527f5061796d656e7453706c69747465723a206163636f756e7420616c726561647960448201526a206861732073686172657360a81b606482015260840162000124565b600e8054600181019091557fbb7b4a454dc3493923482f07822329ed19e8244eff582cc204f8554c3620c3fd0180546001600160a01b0319166001600160a01b0384169081179091556000908152600c60205260409020819055600a54620004af908290620007b8565b600a55604080516001600160a01b0384168152602081018390527f40c340f65e17194d14ddddb073d3c9f888e3cb52b5aae0c6c7706b4fbc905fac910160405180910390a15050565b8280546200050690620007d3565b90600052602060002090601f0160209004810192826200052a576000855562000575565b82601f106200054557805160ff191683800117855562000575565b8280016001018555821562000575579182015b828111156200057557825182559160200191906001019062000558565b506200058392915062000587565b5090565b5b8082111562000583576000815560010162000588565b634e487b7160e01b600052604160045260246000fd5b604051601f8201601f191681016001600160401b0381118282101715620005df57620005df6200059e565b604052919050565b60006001600160401b038211156200060357620006036200059e565b5060051b60200190565b600082601f8301126200061f57600080fd5b81516020620006386200063283620005e7565b620005b4565b82815260059290921b840181019181810190868411156200065857600080fd5b8286015b848110156200067557805183529183019183016200065c565b509695505050505050565b600080600080608085870312156200069757600080fd5b84516001600160401b0380821115620006af57600080fd5b818701915087601f830112620006c457600080fd5b81516020620006d76200063283620005e7565b82815260059290921b8401810191818101908b841115620006f757600080fd5b948201945b838610156200072e5785516001600160a01b03811681146200071e5760008081fd5b82529482019490820190620006fc565b918a01519198509093505050808211156200074857600080fd5b5062000757878288016200060d565b604087015160609097015195989097509350505050565b634e487b7160e01b600052603260045260246000fd5b634e487b7160e01b600052601160045260246000fd5b6000600019821415620007b157620007b162000784565b5060010190565b60008219821115620007ce57620007ce62000784565b500190565b600181811c90821680620007e857607f821691505b602082108114156200080a57634e487b7160e01b600052602260045260246000fd5b50919050565b60805160a05160c05160e0516138db620008ac600039600081816107380152611dd501526000818161051f015281816115560152818161187c0152611e66015260008181610802015281816115320152818161180d0152611e420152600081816114c2015281816118fe015281816119360152818161197401528181611c5201528181612669015281816126930152612c2601526138db6000f3fe6080604052600436106102975760003560e01c80637cb647591161015a578063c87b56dd116100c1578063e3e1e8ef1161007a578063e3e1e8ef14610885578063e985e9c514610898578063ebf0c717146108e1578063f2c4ce1e146108f7578063f2fde38b14610917578063f75da1b31461093757600080fd5b8063c87b56dd1461079a578063ce7c2ac2146107ba578063d5abeb01146107f0578063d7224ba014610824578063d79779b21461083a578063e33b7de31461087057600080fd5b8063a0712d6811610113578063a0712d68146106de578063a22cb465146106f1578063a475b5dd14610711578063b457627814610726578063b88d4fde1461075a578063c4cbce071461077a57600080fd5b80637cb647591461061a5780638b83209b1461063a5780638d859f3e1461065a5780638da5cb5b1461067557806395d89b41146106935780639852595c146106a857600080fd5b806342842e0e116101fe57806355f804b3116101b757806355f804b31461057b5780636352211e1461059b5780636c0360eb146105bb57806370a08231146105d0578063715018a6146105f0578063722503801461060557600080fd5b806342842e0e146104b7578063433adb05146104d757806348b75044146104ed5780634b09b72a1461050d5780634f6ccce714610541578063518302271461056157600080fd5b8063200d2ed211610250578063200d2ed2146103d557806323b872dd146103fc5780632e49d78b1461041c5780632f745c591461043c5780633a98ef391461045c578063406072a91461047157600080fd5b806301ffc9a7146102e557806306fdde031461031a578063081812fc1461033c578063095ea7b31461037457806318160ddd1461039657806319165587146103b557600080fd5b366102e0577f6ef95f06320e7a25a04a175ca677b7052bdd97131872c2192525a629f51be77033604080516001600160a01b0390921682523460208301520160405180910390a1005b600080fd5b3480156102f157600080fd5b50610305610300366004613072565b610964565b60405190151581526020015b60405180910390f35b34801561032657600080fd5b5061032f6109d1565b60405161031191906130e7565b34801561034857600080fd5b5061035c6103573660046130fa565b610a63565b6040516001600160a01b039091168152602001610311565b34801561038057600080fd5b5061039461038f366004613128565b610af3565b005b3480156103a257600080fd5b506000545b604051908152602001610311565b3480156103c157600080fd5b506103946103d0366004613154565b610c0b565b3480156103e157600080fd5b506011546103ef9060ff1681565b6040516103119190613187565b34801561040857600080fd5b506103946104173660046131af565b610d39565b34801561042857600080fd5b506103946104373660046131f0565b610d44565b34801561044857600080fd5b506103a7610457366004613128565b610dcc565b34801561046857600080fd5b50600a546103a7565b34801561047d57600080fd5b506103a761048c366004613211565b6001600160a01b03918216600090815260106020908152604080832093909416825291909152205490565b3480156104c357600080fd5b506103946104d23660046131af565b610f3a565b3480156104e357600080fd5b506103a760165481565b3480156104f957600080fd5b50610394610508366004613211565b610f55565b34801561051957600080fd5b506103a77f000000000000000000000000000000000000000000000000000000000000000081565b34801561054d57600080fd5b506103a761055c3660046130fa565b61112e565b34801561056d57600080fd5b506014546103059060ff1681565b34801561058757600080fd5b506103946105963660046132d6565b611190565b3480156105a757600080fd5b5061035c6105b63660046130fa565b6111d1565b3480156105c757600080fd5b5061032f6111e3565b3480156105dc57600080fd5b506103a76105eb366004613154565b611271565b3480156105fc57600080fd5b50610394611302565b34801561061157600080fd5b5061032f611338565b34801561062657600080fd5b506103946106353660046130fa565b611345565b34801561064657600080fd5b5061035c6106553660046130fa565b6113a4565b34801561066657600080fd5b506103a766753d533d96800081565b34801561068157600080fd5b506008546001600160a01b031661035c565b34801561069f57600080fd5b5061032f6113d4565b3480156106b457600080fd5b506103a76106c3366004613154565b6001600160a01b03166000908152600d602052604090205490565b6103946106ec3660046130fa565b6113e3565b3480156106fd57600080fd5b5061039461070c36600461332d565b611646565b34801561071d57600080fd5b5061039461170b565b34801561073257600080fd5b506103a77f000000000000000000000000000000000000000000000000000000000000000081565b34801561076657600080fd5b5061039461077536600461335b565b611744565b34801561078657600080fd5b50610394610795366004613128565b61177d565b3480156107a657600080fd5b5061032f6107b53660046130fa565b611a11565b3480156107c657600080fd5b506103a76107d5366004613154565b6001600160a01b03166000908152600c602052604090205490565b3480156107fc57600080fd5b506103a77f000000000000000000000000000000000000000000000000000000000000000081565b34801561083057600080fd5b506103a760075481565b34801561084657600080fd5b506103a7610855366004613154565b6001600160a01b03166000908152600f602052604090205490565b34801561087c57600080fd5b50600b546103a7565b6103946108933660046133db565b611b7a565b3480156108a457600080fd5b506103056108b3366004613211565b6001600160a01b03918216600090815260066020908152604080832093909416825291909152205460ff1690565b3480156108ed57600080fd5b506103a760155481565b34801561090357600080fd5b506103946109123660046132d6565b611f78565b34801561092357600080fd5b50610394610932366004613154565b611fb5565b34801561094357600080fd5b506103a7610952366004613154565b60176020526000908152604090205481565b60006001600160e01b031982166380ac58cd60e01b148061099557506001600160e01b03198216635b5e139f60e01b145b806109b057506001600160e01b0319821663780e9d6360e01b145b806109cb57506301ffc9a760e01b6001600160e01b03198316145b92915050565b6060600180546109e09061345a565b80601f0160208091040260200160405190810160405280929190818152602001828054610a0c9061345a565b8015610a595780601f10610a2e57610100808354040283529160200191610a59565b820191906000526020600020905b815481529060010190602001808311610a3c57829003601f168201915b5050505050905090565b6000610a70826000541190565b610ad75760405162461bcd60e51b815260206004820152602d60248201527f455243373231413a20617070726f76656420717565727920666f72206e6f6e6560448201526c3c34b9ba32b73a103a37b5b2b760991b60648201526084015b60405180910390fd5b506000908152600560205260409020546001600160a01b031690565b6000610afe826111d1565b9050806001600160a01b0316836001600160a01b03161415610b6d5760405162461bcd60e51b815260206004820152602260248201527f455243373231413a20617070726f76616c20746f2063757272656e74206f776e60448201526132b960f11b6064820152608401610ace565b336001600160a01b0382161480610b895750610b8981336108b3565b610bfb5760405162461bcd60e51b815260206004820152603960248201527f455243373231413a20617070726f76652063616c6c6572206973206e6f74206f60448201527f776e6572206e6f7220617070726f76656420666f7220616c6c000000000000006064820152608401610ace565b610c06838383612050565b505050565b6001600160a01b0381166000908152600c6020526040902054610c405760405162461bcd60e51b8152600401610ace90613495565b6000610c4b600b5490565b610c5590476134f1565b90506000610c828383610c7d866001600160a01b03166000908152600d602052604090205490565b6120ac565b905080610ca15760405162461bcd60e51b8152600401610ace90613509565b6001600160a01b0383166000908152600d602052604081208054839290610cc99084906134f1565b9250508190555080600b6000828254610ce291906134f1565b90915550610cf2905083826120f4565b604080516001600160a01b0385168152602081018390527fdf20fd1e76bc69d672e4814fafb2c449bba3a5369d8359adf9e05e6fde87b056910160405180910390a1505050565b610c0683838361220d565b6008546001600160a01b03163314610d6e5760405162461bcd60e51b8152600401610ace90613554565b6011805482919060ff19166001836003811115610d8d57610d8d613171565b02179055507fafa725e7f44cadb687a7043853fa1a7e7b8f0da74ce87ec546e9420f04da8c1e81604051610dc19190613187565b60405180910390a150565b6000610dd783611271565b8210610e305760405162461bcd60e51b815260206004820152602260248201527f455243373231413a206f776e657220696e646578206f7574206f6620626f756e604482015261647360f01b6064820152608401610ace565b600080549080805b83811015610eda576000818152600360209081526040918290208251808401909352546001600160a01b038116808452600160a01b90910467ffffffffffffffff169183019190915215610e8b57805192505b876001600160a01b0316836001600160a01b03161415610ec75786841415610eb9575093506109cb92505050565b83610ec381613589565b9450505b5080610ed281613589565b915050610e38565b5060405162461bcd60e51b815260206004820152602e60248201527f455243373231413a20756e61626c6520746f2067657420746f6b656e206f662060448201526d0deeedccae440c4f240d2dcc8caf60931b6064820152608401610ace565b610c0683838360405180602001604052806000815250611744565b6001600160a01b0381166000908152600c6020526040902054610f8a5760405162461bcd60e51b8152600401610ace90613495565b6001600160a01b0382166000908152600f60205260408120546040516370a0823160e01b81523060048201526001600160a01b038516906370a0823190602401602060405180830381865afa158015610fe7573d6000803e3d6000fd5b505050506040513d601f19601f8201168201806040525081019061100b91906135a4565b61101591906134f1565b9050600061104e8383610c7d87876001600160a01b03918216600090815260106020908152604080832093909416825291909152205490565b90508061106d5760405162461bcd60e51b8152600401610ace90613509565b6001600160a01b038085166000908152601060209081526040808320938716835292905290812080548392906110a49084906134f1565b90915550506001600160a01b0384166000908152600f6020526040812080548392906110d19084906134f1565b909155506110e29050848483612595565b604080516001600160a01b038581168252602082018490528616917f3be5b7a71e84ed12875d241991c70855ac5817d847039e17a9d895c1ceb0f18a910160405180910390a250505050565b60008054821061118c5760405162461bcd60e51b815260206004820152602360248201527f455243373231413a20676c6f62616c20696e646578206f7574206f6620626f756044820152626e647360e81b6064820152608401610ace565b5090565b6008546001600160a01b031633146111ba5760405162461bcd60e51b8152600401610ace90613554565b80516111cd906012906020840190612fcc565b5050565b60006111dc826125e7565b5192915050565b601280546111f09061345a565b80601f016020809104026020016040519081016040528092919081815260200182805461121c9061345a565b80156112695780601f1061123e57610100808354040283529160200191611269565b820191906000526020600020905b81548152906001019060200180831161124c57829003601f168201915b505050505081565b60006001600160a01b0382166112dd5760405162461bcd60e51b815260206004820152602b60248201527f455243373231413a2062616c616e636520717565727920666f7220746865207a60448201526a65726f206164647265737360a81b6064820152608401610ace565b506001600160a01b03166000908152600460205260409020546001600160801b031690565b6008546001600160a01b0316331461132c5760405162461bcd60e51b8152600401610ace90613554565b6113366000612791565b565b601380546111f09061345a565b6008546001600160a01b0316331461136f5760405162461bcd60e51b8152600401610ace90613554565b60158190556040518181527f545a99af2f74d472d3ceb11889ff68b31a1a02f48a9431f04cda814892ee57e290602001610dc1565b6000600e82815481106113b9576113b96135bd565b6000918252602090912001546001600160a01b031692915050565b6060600280546109e09061345a565b3233146114025760405162461bcd60e51b8152600401610ace906135d3565b600260095414156114555760405162461bcd60e51b815260206004820152601f60248201527f5265656e7472616e637947756172643a207265656e7472616e742063616c6c006044820152606401610ace565b6002600981905560115460ff16600381111561147357611473613171565b146114c05760405162461bcd60e51b815260206004820152601a60248201527f5075626c69632073616c65206973206e6f74206163746976652e0000000000006044820152606401610ace565b7f00000000000000000000000000000000000000000000000000000000000000008111156115305760405162461bcd60e51b815260206004820181905260248201527f4d6178206d696e7420616d6f756e74207065722074782065786365656465642e6044820152606401610ace565b7f00000000000000000000000000000000000000000000000000000000000000006016547f00000000000000000000000000000000000000000000000000000000000000008361157f60005490565b61158991906134f1565b61159391906134f1565b61159d919061360a565b11156115e25760405162461bcd60e51b815260206004820152601460248201527326b0bc1039bab838363c9032bc31b2b2b232b21760611b6044820152606401610ace565b6115ec33826127e3565b6116056116008266753d533d968000613621565b6127fd565b60408051338152602081018390527f30385c845b448a36257a6a1716e6ad2e1bc2cbe333cde1e69fe849ad6511adfe910160405180910390a1506001600955565b6001600160a01b03821633141561169f5760405162461bcd60e51b815260206004820152601a60248201527f455243373231413a20617070726f766520746f2063616c6c65720000000000006044820152606401610ace565b3360008181526006602090815260408083206001600160a01b03871680855290835292819020805460ff191686151590811790915590519081529192917f17307eab39ab6107e8899845ad3d59bd9653f200f220920489ca2b5937696c31910160405180910390a35050565b6008546001600160a01b031633146117355760405162461bcd60e51b8152600401610ace90613554565b6014805460ff19166001179055565b61174f84848461220d565b61175b84848484612884565b6117775760405162461bcd60e51b8152600401610ace90613640565b50505050565b32331461179c5760405162461bcd60e51b8152600401610ace906135d3565b6008546001600160a01b031633146117c65760405162461bcd60e51b8152600401610ace90613554565b6001600160a01b03821661180b5760405162461bcd60e51b815260206004820152600c60248201526b5a65726f206164647265737360a01b6044820152606401610ace565b7f00000000000000000000000000000000000000000000000000000000000000008161183660005490565b61184091906134f1565b111561187a5760405162461bcd60e51b8152602060048201526009602482015268536f6c64206f75742160b81b6044820152606401610ace565b7f0000000000000000000000000000000000000000000000000000000000000000816016546118a991906134f1565b11156118f75760405162461bcd60e51b815260206004820152601b60248201527f4d6178207265736572766520616d6f756e7420657863656564656400000000006044820152606401610ace565b60006119237f0000000000000000000000000000000000000000000000000000000000000000836136a9565b905060005b8181101561196c5761195a847f00000000000000000000000000000000000000000000000000000000000000006127e3565b8061196481613589565b915050611928565b5060006119997f0000000000000000000000000000000000000000000000000000000000000000846136bd565b905080156119ab576119ab84826127e3565b82601660008282546119bd91906134f1565b9091555050604080513381526001600160a01b03861660208201529081018490527fd729ebd340be850113adba35e3218ac6bd77c375ce35c256e3493fdf30b99f3e9060600160405180910390a150505050565b6060611a1e826000541190565b611a825760405162461bcd60e51b815260206004820152602f60248201527f4552433732314d657461646174613a2055524920717565727920666f72206e6f60448201526e3732bc34b9ba32b73a103a37b5b2b760891b6064820152608401610ace565b60145460ff16611b1e5760138054611a999061345a565b80601f0160208091040260200160405190810160405280929190818152602001828054611ac59061345a565b8015611b125780601f10611ae757610100808354040283529160200191611b12565b820191906000526020600020905b815481529060010190602001808311611af557829003601f168201915b50505050509050919050565b600060128054611b2d9061345a565b905011611b4957604051806020016040528060008152506109cb565b6012611b5483612983565b604051602001611b659291906136ed565b60405160208183030381529060405292915050565b323314611b995760405162461bcd60e51b8152600401610ace906135d3565b60026009541415611bec5760405162461bcd60e51b815260206004820152601f60248201527f5265656e7472616e637947756172643a207265656e7472616e742063616c6c006044820152606401610ace565b6002600955600160115460ff166003811115611c0a57611c0a613171565b14611c505760405162461bcd60e51b8152602060048201526016602482015275283932b9b0b6329034b9903737ba1030b1ba34bb329760511b6044820152606401610ace565b7f0000000000000000000000000000000000000000000000000000000000000000831115611cc05760405162461bcd60e51b815260206004820181905260248201527f4d6178206d696e7420616d6f756e74207065722074782065786365656465642e6044820152606401610ace565b34611cd28466753d533d968000613621565b1115611d115760405162461bcd60e51b815260206004820152600e60248201526d09cdee840cadcdeeaced0408aa8960931b6044820152606401610ace565b611d86828280806020026020016040519081016040528093929190818152602001838360200280828437600092019190915250506015546040516bffffffffffffffffffffffff193360601b166020820152909250603401905060405160208183030381529060405280519060200120612a81565b611dc35760405162461bcd60e51b815260206004820152600e60248201526d24b73b30b634b210383937b7b31760911b6044820152606401610ace565b336000908152601760205260409020547f000000000000000000000000000000000000000000000000000000000000000090611e009085906134f1565b1115611e405760405162461bcd60e51b815260206004820152600f60248201526e546f6f206d616e7920746f6b656e7360881b6044820152606401610ace565b7f00000000000000000000000000000000000000000000000000000000000000006016547f000000000000000000000000000000000000000000000000000000000000000085611e8f60005490565b611e9991906134f1565b611ea391906134f1565b611ead919061360a565b1115611ef25760405162461bcd60e51b815260206004820152601460248201527326b0bc1039bab838363c9032bc31b2b2b232b21760611b6044820152606401610ace565b3360009081526017602052604081208054859290611f119084906134f1565b90915550611f21905033846127e3565b611f356116008466753d533d968000613621565b60408051338152602081018590527f30385c845b448a36257a6a1716e6ad2e1bc2cbe333cde1e69fe849ad6511adfe910160405180910390a15050600160095550565b6008546001600160a01b03163314611fa25760405162461bcd60e51b8152600401610ace90613554565b80516111cd906013906020840190612fcc565b6008546001600160a01b03163314611fdf5760405162461bcd60e51b8152600401610ace90613554565b6001600160a01b0381166120445760405162461bcd60e51b815260206004820152602660248201527f4f776e61626c653a206e6577206f776e657220697320746865207a65726f206160448201526564647265737360d01b6064820152608401610ace565b61204d81612791565b50565b60008281526005602052604080822080546001600160a01b0319166001600160a01b0387811691821790925591518593918516917f8c5be1e5ebec7d5bd14f71427d1e84f3dd0314c0f7b2291e5b200ac8c7c3b92591a4505050565b600a546001600160a01b0384166000908152600c6020526040812054909183916120d69086613621565b6120e091906136a9565b6120ea919061360a565b90505b9392505050565b804710156121445760405162461bcd60e51b815260206004820152601d60248201527f416464726573733a20696e73756666696369656e742062616c616e63650000006044820152606401610ace565b6000826001600160a01b03168260405160006040518083038185875af1925050503d8060008114612191576040519150601f19603f3d011682016040523d82523d6000602084013e612196565b606091505b5050905080610c065760405162461bcd60e51b815260206004820152603a60248201527f416464726573733a20756e61626c6520746f2073656e642076616c75652c207260448201527f6563697069656e74206d617920686176652072657665727465640000000000006064820152608401610ace565b6000612218826125e7565b80519091506000906001600160a01b0316336001600160a01b0316148061224f57503361224484610a63565b6001600160a01b0316145b806122615750815161226190336108b3565b9050806122cb5760405162461bcd60e51b815260206004820152603260248201527f455243373231413a207472616e736665722063616c6c6572206973206e6f74206044820152711bdddb995c881b9bdc88185c1c1c9bdd995960721b6064820152608401610ace565b846001600160a01b031682600001516001600160a01b03161461233f5760405162461bcd60e51b815260206004820152602660248201527f455243373231413a207472616e736665722066726f6d20696e636f72726563746044820152651037bbb732b960d11b6064820152608401610ace565b6001600160a01b0384166123a35760405162461bcd60e51b815260206004820152602560248201527f455243373231413a207472616e7366657220746f20746865207a65726f206164604482015264647265737360d81b6064820152608401610ace565b6123b36000848460000151612050565b6001600160a01b03851660009081526004602052604081208054600192906123e59084906001600160801b03166137a8565b82546101009290920a6001600160801b038181021990931691831602179091556001600160a01b03861660009081526004602052604081208054600194509092612431918591166137d0565b82546001600160801b039182166101009390930a9283029190920219909116179055506040805180820182526001600160a01b03808716825267ffffffffffffffff428116602080850191825260008981526003909152948520935184549151909216600160a01b026001600160e01b031990911691909216171790556124b98460016134f1565b6000818152600360205260409020549091506001600160a01b031661254b576124e3816000541190565b1561254b5760408051808201825284516001600160a01b03908116825260208087015167ffffffffffffffff9081168285019081526000878152600390935294909120925183549451909116600160a01b026001600160e01b03199094169116179190911790555b83856001600160a01b0316876001600160a01b03167fddf252ad1be2c89b69c2b068fc378daa952ba7f163c4a11628f55a4df523b3ef60405160405180910390a45b505050505050565b604080516001600160a01b038416602482015260448082018490528251808303909101815260649091019091526020810180516001600160e01b031663a9059cbb60e01b179052610c06908490612a97565b6040805180820190915260008082526020820152612606826000541190565b6126655760405162461bcd60e51b815260206004820152602a60248201527f455243373231413a206f776e657220717565727920666f72206e6f6e657869736044820152693a32b73a103a37b5b2b760b11b6064820152608401610ace565b60007f000000000000000000000000000000000000000000000000000000000000000083106126c6576126b87f00000000000000000000000000000000000000000000000000000000000000008461360a565b6126c39060016134f1565b90505b825b818110612730576000818152600360209081526040918290208251808401909352546001600160a01b038116808452600160a01b90910467ffffffffffffffff16918301919091521561271d57949350505050565b5080612728816137fb565b9150506126c8565b5060405162461bcd60e51b815260206004820152602f60248201527f455243373231413a20756e61626c6520746f2064657465726d696e652074686560448201526e1037bbb732b91037b3103a37b5b2b760891b6064820152608401610ace565b600880546001600160a01b038381166001600160a01b0319831681179093556040519116919082907f8be0079c531659141344cd1fd0a4f28419497f9722a3daafe3b4186f6b6457e090600090a35050565b6111cd828260405180602001604052806000815250612b69565b803410156128465760405162461bcd60e51b81526020600482015260166024820152752732b2b2103a379039b2b7321036b7b9329022aa241760511b6044820152606401610ace565b8034111561204d57336108fc61285c833461360a565b6040518115909202916000818181858888f193505050501580156111cd573d6000803e3d6000fd5b60006001600160a01b0384163b1561297757604051630a85bd0160e11b81526001600160a01b0385169063150b7a02906128c8903390899088908890600401613812565b6020604051808303816000875af1925050508015612903575060408051601f3d908101601f191682019092526129009181019061384f565b60015b61295d573d808015612931576040519150601f19603f3d011682016040523d82523d6000602084013e612936565b606091505b5080516129555760405162461bcd60e51b8152600401610ace90613640565b805181602001fd5b6001600160e01b031916630a85bd0160e11b14905061297b565b5060015b949350505050565b6060816129a75750506040805180820190915260018152600360fc1b602082015290565b8160005b81156129d157806129bb81613589565b91506129ca9050600a836136a9565b91506129ab565b60008167ffffffffffffffff8111156129ec576129ec61324a565b6040519080825280601f01601f191660200182016040528015612a16576020820181803683370190505b5090505b841561297b57612a2b60018361360a565b9150612a38600a866136bd565b612a439060306134f1565b60f81b818381518110612a5857612a586135bd565b60200101906001600160f81b031916908160001a905350612a7a600a866136a9565b9450612a1a565b600082612a8e8584612e44565b14949350505050565b6000612aec826040518060400160405280602081526020017f5361666545524332303a206c6f772d6c6576656c2063616c6c206661696c6564815250856001600160a01b0316612eb89092919063ffffffff16565b805190915015610c065780806020019051810190612b0a919061386c565b610c065760405162461bcd60e51b815260206004820152602a60248201527f5361666545524332303a204552433230206f7065726174696f6e20646964206e6044820152691bdd081cdd58d8d9595960b21b6064820152608401610ace565b6000546001600160a01b038416612bcc5760405162461bcd60e51b815260206004820152602160248201527f455243373231413a206d696e7420746f20746865207a65726f206164647265736044820152607360f81b6064820152608401610ace565b612bd7816000541190565b15612c245760405162461bcd60e51b815260206004820152601d60248201527f455243373231413a20746f6b656e20616c7265616479206d696e7465640000006044820152606401610ace565b7f0000000000000000000000000000000000000000000000000000000000000000831115612c9f5760405162461bcd60e51b815260206004820152602260248201527f455243373231413a207175616e7469747920746f206d696e7420746f6f2068696044820152610ced60f31b6064820152608401610ace565b6001600160a01b0384166000908152600460209081526040918290208251808401845290546001600160801b038082168352600160801b9091041691810191909152815180830190925280519091908190612cfb9087906137d0565b6001600160801b03168152602001858360200151612d1991906137d0565b6001600160801b039081169091526001600160a01b0380881660008181526004602090815260408083208751978301518716600160801b0297909616969096179094558451808601865291825267ffffffffffffffff4281168386019081528883526003909552948120915182549451909516600160a01b026001600160e01b031990941694909216939093179190911790915582905b85811015612e395760405182906001600160a01b038916906000907fddf252ad1be2c89b69c2b068fc378daa952ba7f163c4a11628f55a4df523b3ef908290a4612dfd6000888488612884565b612e195760405162461bcd60e51b8152600401610ace90613640565b81612e2381613589565b9250508080612e3190613589565b915050612db0565b50600081905561258d565b600081815b8451811015612eb0576000858281518110612e6657612e666135bd565b60200260200101519050808311612e8c5760008381526020829052604090209250612e9d565b600081815260208490526040902092505b5080612ea881613589565b915050612e49565b509392505050565b60606120ea8484600085856001600160a01b0385163b612f1a5760405162461bcd60e51b815260206004820152601d60248201527f416464726573733a2063616c6c20746f206e6f6e2d636f6e74726163740000006044820152606401610ace565b600080866001600160a01b03168587604051612f369190613889565b60006040518083038185875af1925050503d8060008114612f73576040519150601f19603f3d011682016040523d82523d6000602084013e612f78565b606091505b5091509150612f88828286612f93565b979650505050505050565b60608315612fa25750816120ed565b825115612fb25782518084602001fd5b8160405162461bcd60e51b8152600401610ace91906130e7565b828054612fd89061345a565b90600052602060002090601f016020900481019282612ffa5760008555613040565b82601f1061301357805160ff1916838001178555613040565b82800160010185558215613040579182015b82811115613040578251825591602001919060010190613025565b5061118c9291505b8082111561118c5760008155600101613048565b6001600160e01b03198116811461204d57600080fd5b60006020828403121561308457600080fd5b81356120ed8161305c565b60005b838110156130aa578181015183820152602001613092565b838111156117775750506000910152565b600081518084526130d381602086016020860161308f565b601f01601f19169290920160200192915050565b6020815260006120ed60208301846130bb565b60006020828403121561310c57600080fd5b5035919050565b6001600160a01b038116811461204d57600080fd5b6000806040838503121561313b57600080fd5b823561314681613113565b946020939093013593505050565b60006020828403121561316657600080fd5b81356120ed81613113565b634e487b7160e01b600052602160045260246000fd5b60208101600483106131a957634e487b7160e01b600052602160045260246000fd5b91905290565b6000806000606084860312156131c457600080fd5b83356131cf81613113565b925060208401356131df81613113565b929592945050506040919091013590565b60006020828403121561320257600080fd5b8135600481106120ed57600080fd5b6000806040838503121561322457600080fd5b823561322f81613113565b9150602083013561323f81613113565b809150509250929050565b634e487b7160e01b600052604160045260246000fd5b600067ffffffffffffffff8084111561327b5761327b61324a565b604051601f8501601f19908116603f011681019082821181831017156132a3576132a361324a565b816040528093508581528686860111156132bc57600080fd5b858560208301376000602087830101525050509392505050565b6000602082840312156132e857600080fd5b813567ffffffffffffffff8111156132ff57600080fd5b8201601f8101841361331057600080fd5b61297b84823560208401613260565b801515811461204d57600080fd5b6000806040838503121561334057600080fd5b823561334b81613113565b9150602083013561323f8161331f565b6000806000806080858703121561337157600080fd5b843561337c81613113565b9350602085013561338c81613113565b925060408501359150606085013567ffffffffffffffff8111156133af57600080fd5b8501601f810187136133c057600080fd5b6133cf87823560208401613260565b91505092959194509250565b6000806000604084860312156133f057600080fd5b83359250602084013567ffffffffffffffff8082111561340f57600080fd5b818601915086601f83011261342357600080fd5b81358181111561343257600080fd5b8760208260051b850101111561344757600080fd5b6020830194508093505050509250925092565b600181811c9082168061346e57607f821691505b6020821081141561348f57634e487b7160e01b600052602260045260246000fd5b50919050565b60208082526026908201527f5061796d656e7453706c69747465723a206163636f756e7420686173206e6f2060408201526573686172657360d01b606082015260800190565b634e487b7160e01b600052601160045260246000fd5b60008219821115613504576135046134db565b500190565b6020808252602b908201527f5061796d656e7453706c69747465723a206163636f756e74206973206e6f742060408201526a191d59481c185e5b595b9d60aa1b606082015260800190565b6020808252818101527f4f776e61626c653a2063616c6c6572206973206e6f7420746865206f776e6572604082015260600190565b600060001982141561359d5761359d6134db565b5060010190565b6000602082840312156135b657600080fd5b5051919050565b634e487b7160e01b600052603260045260246000fd5b6020808252601e908201527f5468652063616c6c657220697320616e6f7468657220636f6e74726163740000604082015260600190565b60008282101561361c5761361c6134db565b500390565b600081600019048311821515161561363b5761363b6134db565b500290565b60208082526033908201527f455243373231413a207472616e7366657220746f206e6f6e204552433732315260408201527232b1b2b4bb32b91034b6b83632b6b2b73a32b960691b606082015260800190565b634e487b7160e01b600052601260045260246000fd5b6000826136b8576136b8613693565b500490565b6000826136cc576136cc613693565b500690565b600081516136e381856020860161308f565b9290920192915050565b600080845481600182811c91508083168061370957607f831692505b602080841082141561372957634e487b7160e01b86526022600452602486fd5b81801561373d576001811461374e5761377b565b60ff1986168952848901965061377b565b60008b81526020902060005b868110156137735781548b82015290850190830161375a565b505084890196505b50505050505061379f61378e82866136d1565b64173539b7b760d91b815260050190565b95945050505050565b60006001600160801b03838116908316818110156137c8576137c86134db565b039392505050565b60006001600160801b038083168185168083038211156137f2576137f26134db565b01949350505050565b60008161380a5761380a6134db565b506000190190565b6001600160a01b0385811682528416602082015260408101839052608060608201819052600090613845908301846130bb565b9695505050505050565b60006020828403121561386157600080fd5b81516120ed8161305c565b60006020828403121561387e57600080fd5b81516120ed8161331f565b6000825161389b81846020870161308f565b919091019291505056fea2646970667358221220fbc276dd772681ccc218c64d86720160992677bc094e33bb9d15d193a86de5a864736f6c634300080a0033697066733a2f2f516d595575774c6f69526238776f58774a434373723167766272384532314b757852746d56426d6e4831745a7a372f68696464656e2e6a736f6e",
  "linkReferences": {},
  "deployedLinkReferences": {}
}